{"abi":[{"type":"receive","stateMutability":"payable"},{"type":"function","name":"createPackage","inputs":[{"name":"packageId","type":"uint256","internalType":"uint256"},{"name":"postage","type":"uint256","internalType":"uint256"},{"name":"minRating","type":"uint8","internalType":"uint8"},{"name":"recipient","type":"address","internalType":"address"}],"outputs":[],"stateMutability":"nonpayable"},{"type":"function","name":"deliverPackage","inputs":[{"name":"packageId","type":"uint256","internalType":"uint256"}],"outputs":[],"stateMutability":"nonpayable"},{"type":"function","name":"depositFunds","inputs":[{"name":"_packageId","type":"uint256","internalType":"uint256"}],"outputs":[],"stateMutability":"payable"},{"type":"function","name":"packageVerified","inputs":[{"name":"","type":"uint256","internalType":"uint256"}],"outputs":[{"name":"","type":"bool","internalType":"bool"}],"stateMutability":"view"},{"type":"function","name":"packages","inputs":[{"name":"","type":"uint256","internalType":"uint256"}],"outputs":[{"name":"packageId","type":"uint256","internalType":"uint256"},{"name":"postage","type":"uint256","internalType":"uint256"},{"name":"minRating","type":"uint8","internalType":"uint8"},{"name":"sender","type":"address","internalType":"address"},{"name":"recipient","type":"address","internalType":"address"},{"name":"deliveryGuy","type":"address","internalType":"address"},{"name":"pickupTimestamp","type":"uint256","internalType":"uint256"},{"name":"isPickedUp","type":"bool","internalType":"bool"},{"name":"isDelivered","type":"bool","internalType":"bool"}],"stateMutability":"view"},{"type":"function","name":"pickupPackage","inputs":[{"name":"packageId","type":"uint256","internalType":"uint256"},{"name":"deliveryGuy","type":"address","internalType":"address"}],"outputs":[],"stateMutability":"nonpayable"},{"type":"function","name":"senderDeposits","inputs":[{"name":"","type":"address","internalType":"address"}],"outputs":[{"name":"","type":"uint256","internalType":"uint256"}],"stateMutability":"view"},{"type":"function","name":"verifyAndCompleteDelivery","inputs":[{"name":"packageId","type":"uint256","internalType":"uint256"},{"name":"proximityCheck","type":"bool","internalType":"bool"},{"name":"verifyPackageId","type":"bool","internalType":"bool"}],"outputs":[],"stateMutability":"nonpayable"},{"type":"event","name":"FundsDeposited","inputs":[{"name":"sender","type":"address","indexed":false,"internalType":"address"},{"name":"amount","type":"uint256","indexed":false,"internalType":"uint256"}],"anonymous":false},{"type":"event","name":"FundsTransferred","inputs":[{"name":"to","type":"address","indexed":false,"internalType":"address"},{"name":"amount","type":"uint256","indexed":false,"internalType":"uint256"}],"anonymous":false},{"type":"event","name":"PackageCreated","inputs":[{"name":"packageId","type":"uint256","indexed":false,"internalType":"uint256"},{"name":"sender","type":"address","indexed":false,"internalType":"address"},{"name":"recipient","type":"address","indexed":false,"internalType":"address"}],"anonymous":false},{"type":"event","name":"PackageDelivered","inputs":[{"name":"packageId","type":"uint256","indexed":false,"internalType":"uint256"},{"name":"deliveryGuy","type":"address","indexed":false,"internalType":"address"},{"name":"timestamp","type":"uint256","indexed":false,"internalType":"uint256"}],"anonymous":false},{"type":"event","name":"PackagePickedUp","inputs":[{"name":"packageId","type":"uint256","indexed":false,"internalType":"uint256"},{"name":"deliveryGuy","type":"address","indexed":false,"internalType":"address"},{"name":"timestamp","type":"uint256","indexed":false,"internalType":"uint256"}],"anonymous":false}],"bytecode":{"object":"0x6080604052348015600f57600080fd5b50610d468061001f6000396000f3fe60806040526004361061007f5760003560e01c80633b76594d1161004e5780633b76594d1461014d57806358e4a71c14610160578063c216212a14610180578063e1cc51c41461025457600080fd5b806312150b5d1461008b57806327a0d5b3146100ad57806336a3294f146100f25780633708cf921461012d57600080fd5b3661008657005b600080fd5b34801561009757600080fd5b506100ab6100a6366004610b6a565b610274565b005b3480156100b957600080fd5b506100dd6100c8366004610b6a565b60016020526000908152604090205460ff1681565b60405190151581526020015b60405180910390f35b3480156100fe57600080fd5b5061011f61010d366004610b9f565b60026020526000908152604090205481565b6040519081526020016100e9565b34801561013957600080fd5b506100ab610148366004610bc1565b610490565b6100ab61015b366004610b6a565b610625565b34801561016c57600080fd5b506100ab61017b366004610bfd565b6106d2565b34801561018c57600080fd5b506101fa61019b366004610b6a565b60006020819052908152604090208054600182015460028301546003840154600485015460058601546006909601549495939460ff808516956001600160a01b0361010096879004811696958116959416939092808316929190041689565b60408051998a5260208a019890985260ff909616968801969096526001600160a01b03938416606088015291831660808701529190911660a085015260c084015290151560e08301521515610100820152610120016100e9565b34801561026057600080fd5b506100ab61026f366004610c39565b61092e565b60008181526020819052604090206004015481906001600160a01b031633146102fd5760405162461bcd60e51b815260206004820152603060248201527f4f6e6c79207468652064656c697665727920706572736f6e2063616e2070657260448201526f3337b936903a3434b99030b1ba34b7b760811b60648201526084015b60405180910390fd5b600082815260208190526040902060020154829061010090046001600160a01b03166103645760405162461bcd60e51b8152602060048201526016602482015275141858dad859d948191bd95cc81b9bdd08195e1a5cdd60521b60448201526064016102f4565b60008381526020819052604090206006015460ff166103c55760405162461bcd60e51b815260206004820152601960248201527f5061636b616765206e6f74207069636b6564207570207965740000000000000060448201526064016102f4565b600083815260208190526040902060060154610100900460ff161561042c5760405162461bcd60e51b815260206004820152601960248201527f5061636b61676520616c72656164792064656c6976657265640000000000000060448201526064016102f4565b60008381526020818152604091829020600601805461ff00191661010017905581518581523391810191909152428183015290517f234136390d730312c8db2dcecfe8cb9c50c43b98cc889c17b0fc0f38ac5667fd916060908290030190a1505050565b600082815260208190526040902060020154829061010090046001600160a01b031633146104d05760405162461bcd60e51b81526004016102f490610c87565b600083815260208190526040902060020154839061010090046001600160a01b03166105375760405162461bcd60e51b8152602060048201526016602482015275141858dad859d948191bd95cc81b9bdd08195e1a5cdd60521b60448201526064016102f4565b60008481526020819052604090206006015460ff16156105995760405162461bcd60e51b815260206004820152601960248201527f5061636b61676520616c7265616479207069636b65642075700000000000000060448201526064016102f4565b600084815260208181526040918290206004810180546001600160a01b0319166001600160a01b03881690811790915542600583018190556006909201805460ff19166001179055835188815292830152918101919091527fb93386a2eaa2c27948996cdbffcf75d38b3960a872072143ae9da926c0371948906060015b60405180910390a150505050565b6000818152602081905260409020600281015461010090046001600160a01b031633146106645760405162461bcd60e51b81526004016102f490610c87565b806001015434146106aa5760405162461bcd60e51b815260206004820152601060248201526f125b98dbdc9c9958dd08185b5bdd5b9d60821b60448201526064016102f4565b33600090815260026020526040812080543492906106c9908490610ce4565b90915550505050565b6000838152602081905260409020600301546001600160a01b0316331461073b5760405162461bcd60e51b815260206004820152601960248201527f4f6e6c7920726563697069656e742063616e207665726966790000000000000060448201526064016102f4565b816107945760405162461bcd60e51b815260206004820152602360248201527f44656c697665727920706572736f6e206973206e6f7420696e2070726f78696d60448201526269747960e81b60648201526084016102f4565b806107e15760405162461bcd60e51b815260206004820152601e60248201527f5061636b61676520494420766572696669636174696f6e206661696c6564000060448201526064016102f4565b6000838152600160208181526040808420805460ff19168417905583825280842092830154600484015460029485015461010090046001600160a01b03908116808852959094529190942054911691908311156108805760405162461bcd60e51b815260206004820152601e60248201527f496e73756666696369656e742066756e647320696e20636f6e7472616374000060448201526064016102f4565b6040516001600160a01b0383169084156108fc029085906000818181858888f193505050501580156108b6573d6000803e3d6000fd5b506001600160a01b038116600090815260026020526040812080548592906108df908490610cfd565b9091555050604080516001600160a01b0384168152602081018590527f8c9a4f13b67cb64d7c6aa1ae0c9bf07694af521a28b93e7060020810ab4bc59f910160405180910390a1505050505050565b60008481526020819052604090206002015461010090046001600160a01b03161561099b5760405162461bcd60e51b815260206004820152601960248201527f5061636b61676520494420616c7265616479206578697374730000000000000060448201526064016102f4565b6040518061012001604052808581526020018481526020018360ff168152602001336001600160a01b03168152602001826001600160a01b0316815260200160006001600160a01b031681526020016000815260200160001515815260200160001515815250600080868152602001908152602001600020600082015181600001556020820151816001015560408201518160020160006101000a81548160ff021916908360ff16021790555060608201518160020160016101000a8154816001600160a01b0302191690836001600160a01b0316021790555060808201518160030160006101000a8154816001600160a01b0302191690836001600160a01b0316021790555060a08201518160040160006101000a8154816001600160a01b0302191690836001600160a01b0316021790555060c0820151816005015560e08201518160060160006101000a81548160ff0219169083151502179055506101008201518160060160016101000a81548160ff0219169083151502179055509050507f3a60b7d57a81e2c75379d0cc920bcfcb604e4776feb909ff2a3562c22f8bb299843383604051610617939291909283526001600160a01b03918216602084015216604082015260600190565b600060208284031215610b7c57600080fd5b5035919050565b80356001600160a01b0381168114610b9a57600080fd5b919050565b600060208284031215610bb157600080fd5b610bba82610b83565b9392505050565b60008060408385031215610bd457600080fd5b82359150610be460208401610b83565b90509250929050565b80358015158114610b9a57600080fd5b600080600060608486031215610c1257600080fd5b83359250610c2260208501610bed565b9150610c3060408501610bed565b90509250925092565b60008060008060808587031215610c4f57600080fd5b8435935060208501359250604085013560ff81168114610c6e57600080fd5b9150610c7c60608601610b83565b905092959194509250565b60208082526027908201527f4f6e6c79207468652073656e6465722063616e20706572666f726d20746869736040820152661030b1ba34b7b760c91b606082015260800190565b634e487b7160e01b600052601160045260246000fd5b80820180821115610cf757610cf7610cce565b92915050565b81810381811115610cf757610cf7610cce56fea26469706673582212205b9f2f925dd0b3d38cfb7c4b9e2225b524d4c310008588255bc935886aadb87f64736f6c634300081b0033","linkReferences":{}},"methodIdentifiers":{"createPackage(uint256,uint256,uint8,address)":"e1cc51c4","deliverPackage(uint256)":"12150b5d","depositFunds(uint256)":"3b76594d","packageVerified(uint256)":"27a0d5b3","packages(uint256)":"c216212a","pickupPackage(uint256,address)":"3708cf92","senderDeposits(address)":"36a3294f","verifyAndCompleteDelivery(uint256,bool,bool)":"58e4a71c"},"id":23}