{
  "contractName": "ProofOfLocation",
  "abi": [
    {
      "inputs": [
        {
          "internalType": "address",
          "name": "_receiver",
          "type": "address"
        },
        {
          "internalType": "uint256",
          "name": "_maxDistance",
          "type": "uint256"
        }
      ],
      "stateMutability": "nonpayable",
      "type": "constructor"
    },
    {
      "anonymous": false,
      "inputs": [
        {
          "indexed": true,
          "internalType": "address",
          "name": "sender",
          "type": "address"
        },
        {
          "indexed": true,
          "internalType": "address",
          "name": "receiver",
          "type": "address"
        },
        {
          "indexed": false,
          "internalType": "string",
          "name": "message",
          "type": "string"
        },
        {
          "indexed": false,
          "internalType": "bytes32",
          "name": "orderHash",
          "type": "bytes32"
        }
      ],
      "name": "DeliveryConfirmedAndOrderVerified",
      "type": "event"
    },
    {
      "inputs": [],
      "name": "endLat",
      "outputs": [
        {
          "internalType": "uint256",
          "name": "",
          "type": "uint256"
        }
      ],
      "stateMutability": "view",
      "type": "function"
    },
    {
      "inputs": [],
      "name": "endLon",
      "outputs": [
        {
          "internalType": "uint256",
          "name": "",
          "type": "uint256"
        }
      ],
      "stateMutability": "view",
      "type": "function"
    },
    {
      "inputs": [],
      "name": "isDeliveryConfirmed",
      "outputs": [
        {
          "internalType": "bool",
          "name": "",
          "type": "bool"
        }
      ],
      "stateMutability": "view",
      "type": "function"
    },
    {
      "inputs": [],
      "name": "isOrderVerified",
      "outputs": [
        {
          "internalType": "bool",
          "name": "",
          "type": "bool"
        }
      ],
      "stateMutability": "view",
      "type": "function"
    },
    {
      "inputs": [],
      "name": "maxDistance",
      "outputs": [
        {
          "internalType": "uint256",
          "name": "",
          "type": "uint256"
        }
      ],
      "stateMutability": "view",
      "type": "function"
    },
    {
      "inputs": [],
      "name": "receiver",
      "outputs": [
        {
          "internalType": "address",
          "name": "",
          "type": "address"
        }
      ],
      "stateMutability": "view",
      "type": "function"
    },
    {
      "inputs": [],
      "name": "sender",
      "outputs": [
        {
          "internalType": "address",
          "name": "",
          "type": "address"
        }
      ],
      "stateMutability": "view",
      "type": "function"
    },
    {
      "inputs": [],
      "name": "startLat",
      "outputs": [
        {
          "internalType": "uint256",
          "name": "",
          "type": "uint256"
        }
      ],
      "stateMutability": "view",
      "type": "function"
    },
    {
      "inputs": [],
      "name": "startLon",
      "outputs": [
        {
          "internalType": "uint256",
          "name": "",
          "type": "uint256"
        }
      ],
      "stateMutability": "view",
      "type": "function"
    },
    {
      "inputs": [
        {
          "internalType": "uint256",
          "name": "_lat",
          "type": "uint256"
        },
        {
          "internalType": "uint256",
          "name": "_lon",
          "type": "uint256"
        }
      ],
      "name": "setStartLocation",
      "outputs": [],
      "stateMutability": "nonpayable",
      "type": "function"
    },
    {
      "inputs": [
        {
          "internalType": "uint256",
          "name": "_lat",
          "type": "uint256"
        },
        {
          "internalType": "uint256",
          "name": "_lon",
          "type": "uint256"
        }
      ],
      "name": "setEndLocation",
      "outputs": [],
      "stateMutability": "nonpayable",
      "type": "function"
    },
    {
      "inputs": [
        {
          "internalType": "uint256",
          "name": "_calculatedDistance",
          "type": "uint256"
        }
      ],
      "name": "validateDelivery",
      "outputs": [],
      "stateMutability": "nonpayable",
      "type": "function"
    },
    {
      "inputs": [],
      "name": "verifyOrder",
      "outputs": [],
      "stateMutability": "nonpayable",
      "type": "function"
    },
    {
      "inputs": [
        {
          "internalType": "bytes32",
          "name": "orderHash",
          "type": "bytes32"
        }
      ],
      "name": "releaseEvent",
      "outputs": [],
      "stateMutability": "nonpayable",
      "type": "function"
    }
  ],
  "bytecode": "0x608060405234801562000010575f80fd5b5060405162000d0638038062000d06833981810160405281019062000036919062000194565b335f806101000a81548173ffffffffffffffffffffffffffffffffffffffff021916908373ffffffffffffffffffffffffffffffffffffffff1602179055508160015f6101000a81548173ffffffffffffffffffffffffffffffffffffffff021916908373ffffffffffffffffffffffffffffffffffffffff160217905550806006819055505f60075f6101000a81548160ff0219169083151502179055505f600760016101000a81548160ff0219169083151502179055505050620001d9565b5f80fd5b5f73ffffffffffffffffffffffffffffffffffffffff82169050919050565b5f6200012682620000fb565b9050919050565b62000138816200011a565b811462000143575f80fd5b50565b5f8151905062000156816200012d565b92915050565b5f819050919050565b62000170816200015c565b81146200017b575f80fd5b50565b5f815190506200018e8162000165565b92915050565b5f8060408385031215620001ad57620001ac620000f7565b5b5f620001bc8582860162000146565b9250506020620001cf858286016200017e565b9150509250929050565b610b1f80620001e75f395ff3fe608060405234801561000f575f80fd5b50600436106100e8575f3560e01c80636e3dc9921161008a57806395cf27481161006457806395cf2748146101fe578063a8ba00231461021a578063e9807eb214610238578063f7260d3e14610256576100e8565b80636e3dc992146101a457806374f2db71146101c25780638fbd8d3f146101e0576100e8565b80634c86570c116100c65780634c86570c1461013057806367e404ce1461014e5780636869d32b1461016c578063699abc1814610188576100e8565b80630f5736f0146100ec5780633d1ee410146101085780634b0520d914610112575b5f80fd5b6101066004803603810190610101919061063a565b610274565b005b610110610313565b005b61011a610330565b6040516101279190610687565b60405180910390f35b610138610336565b6040516101459190610687565b60405180910390f35b61015661033c565b60405161016391906106df565b60405180910390f35b610186600480360381019061018191906106f8565b61035f565b005b6101a2600480360381019061019d919061063a565b6103c1565b005b6101ac610462565b6040516101b99190610687565b60405180910390f35b6101ca610468565b6040516101d7919061073d565b60405180910390f35b6101e861047b565b6040516101f59190610687565b60405180910390f35b61021860048036038101906102139190610789565b610481565b005b6102226105c6565b60405161022f919061073d565b60405180910390f35b6102406105d8565b60405161024d9190610687565b60405180910390f35b61025e6105de565b60405161026b91906106df565b60405180910390f35b5f8054906101000a900473ffffffffffffffffffffffffffffffffffffffff1673ffffffffffffffffffffffffffffffffffffffff163373ffffffffffffffffffffffffffffffffffffffff1614610301576040517f08c379a00000000000000000000000000000000000000000000000000000000081526004016102f890610834565b60405180910390fd5b81600281905550806003819055505050565b6001600760016101000a81548160ff021916908315150217905550565b60055481565b60045481565b5f8054906101000a900473ffffffffffffffffffffffffffffffffffffffff1681565b6006548111156103a4576040517f08c379a000000000000000000000000000000000000000000000000000000000815260040161039b906108c2565b60405180910390fd5b600160075f6101000a81548160ff02191690831515021790555050565b60015f9054906101000a900473ffffffffffffffffffffffffffffffffffffffff1673ffffffffffffffffffffffffffffffffffffffff163373ffffffffffffffffffffffffffffffffffffffff1614610450576040517f08c379a000000000000000000000000000000000000000000000000000000000815260040161044790610950565b60405180910390fd5b81600481905550806005819055505050565b60065481565b600760019054906101000a900460ff1681565b60025481565b60075f9054906101000a900460ff166104cf576040517f08c379a00000000000000000000000000000000000000000000000000000000081526004016104c6906109b8565b60405180910390fd5b600760019054906101000a900460ff1661051e576040517f08c379a000000000000000000000000000000000000000000000000000000000815260040161051590610a20565b60405180910390fd5b60015f9054906101000a900473ffffffffffffffffffffffffffffffffffffffff1673ffffffffffffffffffffffffffffffffffffffff165f8054906101000a900473ffffffffffffffffffffffffffffffffffffffff1673ffffffffffffffffffffffffffffffffffffffff167fabbef3acb5695706e1efa4639a29f66e6caaefb801bfa74e7485ac143dafbd43836040516105bb9190610abd565b60405180910390a350565b60075f9054906101000a900460ff1681565b60035481565b60015f9054906101000a900473ffffffffffffffffffffffffffffffffffffffff1681565b5f80fd5b5f819050919050565b61061981610607565b8114610623575f80fd5b50565b5f8135905061063481610610565b92915050565b5f80604083850312156106505761064f610603565b5b5f61065d85828601610626565b925050602061066e85828601610626565b9150509250929050565b61068181610607565b82525050565b5f60208201905061069a5f830184610678565b92915050565b5f73ffffffffffffffffffffffffffffffffffffffff82169050919050565b5f6106c9826106a0565b9050919050565b6106d9816106bf565b82525050565b5f6020820190506106f25f8301846106d0565b92915050565b5f6020828403121561070d5761070c610603565b5b5f61071a84828501610626565b91505092915050565b5f8115159050919050565b61073781610723565b82525050565b5f6020820190506107505f83018461072e565b92915050565b5f819050919050565b61076881610756565b8114610772575f80fd5b50565b5f813590506107838161075f565b92915050565b5f6020828403121561079e5761079d610603565b5b5f6107ab84828501610775565b91505092915050565b5f82825260208201905092915050565b7f4f6e6c79207468652073656e6465722063616e207365742074686520737461725f8201527f74206c6f636174696f6e00000000000000000000000000000000000000000000602082015250565b5f61081e602a836107b4565b9150610829826107c4565b604082019050919050565b5f6020820190508181035f83015261084b81610812565b9050919050565b7f44656c6976657279206c6f636174696f6e206973206f7574206f6620616363655f8201527f707461626c652072616e67650000000000000000000000000000000000000000602082015250565b5f6108ac602c836107b4565b91506108b782610852565b604082019050919050565b5f6020820190508181035f8301526108d9816108a0565b9050919050565b7f4f6e6c79207468652072656365697665722063616e207365742074686520656e5f8201527f64206c6f636174696f6e00000000000000000000000000000000000000000000602082015250565b5f61093a602a836107b4565b9150610945826108e0565b604082019050919050565b5f6020820190508181035f8301526109678161092e565b9050919050565b7f44656c6976657279206e6f7420636f6e6669726d6564207965740000000000005f82015250565b5f6109a2601a836107b4565b91506109ad8261096e565b602082019050919050565b5f6020820190508181035f8301526109cf81610996565b9050919050565b7f4f72646572206e6f7420766572696669656420796574000000000000000000005f82015250565b5f610a0a6016836107b4565b9150610a15826109d6565b602082019050919050565b5f6020820190508181035f830152610a37816109fe565b9050919050565b7f44656c697665727920636f6e6669726d656420616e64206f72646572207665725f8201527f6966696564000000000000000000000000000000000000000000000000000000602082015250565b5f610a986025836107b4565b9150610aa382610a3e565b604082019050919050565b610ab781610756565b82525050565b5f6040820190508181035f830152610ad481610a8c565b9050610ae36020830184610aae565b9291505056fea264697066735822122097f57006d015c74594d357a4ae48be0a824772f2b982a822f57138b086d4c7ef64736f6c63430008150033",
  "immutableReferences": {},
  "source": "// SPDX-License-Identifier: MIT\r\npragma solidity ^0.8.0;\r\n\r\ncontract ProofOfLocation {\r\n    address public sender;\r\n    address public receiver;\r\n    uint256 public startLat;\r\n    uint256 public startLon;\r\n    uint256 public endLat;\r\n    uint256 public endLon;\r\n    uint256 public maxDistance;\r\n\r\n    bool public isDeliveryConfirmed;\r\n    bool public isOrderVerified;\r\n\r\n    // Event to be emitted after conditions are met\r\n    event DeliveryConfirmedAndOrderVerified(\r\n        address indexed sender,\r\n        address indexed receiver,\r\n        string message,\r\n        bytes32 orderHash\r\n    );\r\n\r\n    constructor(address _receiver, uint256 _maxDistance) {\r\n        sender = msg.sender;\r\n        receiver = _receiver;\r\n        maxDistance = _maxDistance;\r\n        isDeliveryConfirmed = false;\r\n        isOrderVerified = false;\r\n    }\r\n\r\n    function setStartLocation(uint256 _lat, uint256 _lon) external {\r\n        require(msg.sender == sender, \"Only the sender can set the start location\");\r\n        startLat = _lat;\r\n        startLon = _lon;\r\n    }\r\n\r\n    function setEndLocation(uint256 _lat, uint256 _lon) external {\r\n        require(msg.sender == receiver, \"Only the receiver can set the end location\");\r\n        endLat = _lat;\r\n        endLon = _lon;\r\n    }\r\n\r\n    function validateDelivery(uint256 _calculatedDistance) external {\r\n        require(_calculatedDistance <= maxDistance, \"Delivery location is out of acceptable range\");\r\n        isDeliveryConfirmed = true;\r\n    }\r\n\r\n    function verifyOrder() external {\r\n        // Simulate order verification process\r\n        isOrderVerified = true;\r\n    }\r\n\r\n    function releaseEvent(bytes32 orderHash) external {\r\n        require(isDeliveryConfirmed, \"Delivery not confirmed yet\");\r\n        require(isOrderVerified, \"Order not verified yet\");\r\n\r\n        // Emit event instead of transferring payment\r\n        emit DeliveryConfirmedAndOrderVerified(\r\n            sender,\r\n            receiver,\r\n            \"Delivery confirmed and order verified\",\r\n            orderHash\r\n        );\r\n    }\r\n}\r\n",
  "sourcePath": "H:\\Ether_location_proof\\contracts\\ProofOfLocation.sol",
  "compiler": {
    "name": "solc",
    "version": "0.8.21+commit.d9974bed.Emscripten.clang"
  },
  "schemaVersion": "3.4.16",
  "updatedAt": "2024-09-08T04:53:24.885Z",
  "devdoc": {
    "kind": "dev",
    "methods": {},
    "version": 1
  },
  "userdoc": {
    "kind": "user",
    "methods": {},
    "version": 1
  }
}